{
  "_format": "hh-sol-artifact-1",
  "contractName": "Sudoku",
  "sourceName": "contracts/Sudoku.sol",
  "abi": [
    {
      "inputs": [
        {
          "internalType": "address",
          "name": "_verifierAddr",
          "type": "address"
        }
      ],
      "stateMutability": "nonpayable",
      "type": "constructor"
    },
    {
      "inputs": [
        {
          "internalType": "string",
          "name": "stringTime",
          "type": "string"
        }
      ],
      "name": "generateSudokuBoard",
      "outputs": [
        {
          "internalType": "uint8[9][9]",
          "name": "",
          "type": "uint8[9][9]"
        }
      ],
      "stateMutability": "view",
      "type": "function"
    },
    {
      "inputs": [],
      "name": "verifierAddr",
      "outputs": [
        {
          "internalType": "address",
          "name": "",
          "type": "address"
        }
      ],
      "stateMutability": "view",
      "type": "function"
    },
    {
      "inputs": [
        {
          "internalType": "bytes",
          "name": "proof",
          "type": "bytes"
        },
        {
          "internalType": "uint256[]",
          "name": "pubSignals",
          "type": "uint256[]"
        }
      ],
      "name": "verifyProof",
      "outputs": [
        {
          "internalType": "bool",
          "name": "",
          "type": "bool"
        }
      ],
      "stateMutability": "view",
      "type": "function"
    },
    {
      "inputs": [
        {
          "internalType": "bytes",
          "name": "proof",
          "type": "bytes"
        },
        {
          "internalType": "uint256[]",
          "name": "pubSignals",
          "type": "uint256[]"
        }
      ],
      "name": "verifySudoku",
      "outputs": [
        {
          "internalType": "bool",
          "name": "",
          "type": "bool"
        }
      ],
      "stateMutability": "view",
      "type": "function"
    }
  ],
  "bytecode": "0x6001610200818152600261022081905260076102408190526005610260819052600861028081905260046102a081905260066102c081905260096102e0819052600361030081905260e09889526103208581526103408790526103608490526103808290526103a08890526103c08390526103e08b9052610400899052610420859052610100526104408181526104608590526104808390526104a08490526104c08990526104e08b9052610500869052610520889052610540879052610120526105608481526105808890526105a08b90526105c08390526105e0879052610600869052610620899052610640829052610660849052610140526106808881526106a08490526106c08690526106e08890526107008b9052610720829052610740879052610760859052610780839052610160526107a08281526107c08290526107e08790526108008590526108208490526108408990526108608890526108808b90526108a0869052610180526108c08681526108e08690526109008290526109208990526109408390526109608890526109808590526109a08490526109c08b90526101a0526109e0878152610a008b9052610a20859052610a40869052610a60829052610a80849052610aa0839052610ac0879052610ae08990526101c052610b00838152610b20839052610b40899052610b608b9052610b80859052610ba0879052610bc08290526000610be0819052610c008990526101e0919091526080998a52610d40818152610d608a9052610d80899052610da0889052610dc0829052610de0869052610e00829052610e20829052610e40829052610c20908152610e60828152610e80839052610ea0839052610ec0849052610ee08a9052610f00839052610f20839052610f40839052610f60879052610c4052610f80838152610fa0839052610fc0839052610fe0839052611000839052611020839052611040889052611060839052611080839052610c60526110a08681526110c08a90526110e08390526111008590526111208990526111408890526111608390526111808490526111a0869052610c80526111c08a81526111e08690526112008890526112208a90526112408d90526112608390526112808390526112a08790526112c0859052610ca0526112e08281526113008390526113208390526113408390526113608390526113808b90526113a08390526113c08d90526113e0889052610cc0526114008281526114208890526114408490526114608390526114808590526114a08390526114c08790526114e0839052611500839052610ce0526115208981526115408d90526115608390526115808390526115a08390526115c08390526115e08590526116008390526116208b9052610d00526116408281526116608390526116808390526116a08390526116c08390526116e08990526117008390526117208390526117408a9052610d205260a0526118808181526118a08290526118c08290526118e08290526119008290526119208590526119408290526119608290526119808290526117609081526119a08281526119c08390526119e08a9052611a008b9052611a20839052611a40839052611a60889052611a80839052611aa083905261178052611ac0848152611ae0839052611b00869052611b20889052611b40839052611b60839052611b80839052611ba08d9052611bc08390526117a052611be0838152611c00839052611c20839052611c408a9052611c60839052611c80839052611ca0839052611cc08b9052611ce08590526117c052611d00828152611d20839052611d40839052611d60839052611d80839052611da0839052611dc0839052611de0839052611e008390526117e052611e20868152611e40839052611e60839052611e80899052611ea0839052611ec0839052611ee0839052611f008a9052611f2083905261180052611f40948552611f60889052611f80829052611fa08c9052611fc0829052611fe0829052612000829052612020829052612040829052611820949094526120609586526120808190526120a08b90526120c08190526120e096909652612100869052612120819052612140869052612160869052611840949094526122a06040526121809586526121a0526121c0959095526121e083905261220083905261222083905261224083905261226092909252612280919091526118609190915260c09190915262000665929190620006bc565b503480156200067357600080fd5b506040516200119d3803806200119d833981016040819052620006969162000852565b600080546001600160a01b0319166001600160a01b039290921691909117905562000882565b601b83019183908215620006fc579160200282015b82811115620006fc578251620006eb90839060096200070e565b5091602001919060090190620006d1565b506200070a9291506200075b565b5090565b82600981019282156200074d579160200282015b828111156200074d5782516200073c90839060096200077c565b509160200191906001019062000722565b506200070a92915062000812565b808211156200070a57600062000772828262000828565b506009016200075b565b600183019183908215620008045791602002820160005b83821115620007d357835183826101000a81548160ff021916908360ff160217905550926020019260010160208160000104928301926001030262000793565b8015620008025782816101000a81549060ff0219169055600101602081600001049283019260010302620007d3565b505b506200070a9291506200083c565b808211156200070a576000815560010162000812565b506200083990600981019062000812565b50565b808211156200070a576000815560010162000812565b60006020828403121562000864578081fd5b81516001600160a01b03811681146200087b578182fd5b9392505050565b61090b80620008926000396000f3fe608060405234801561001057600080fd5b506004361061004c5760003560e01c80631e8e1e1314610051578063663ea2e214610079578063858adbd7146100a4578063c54d8fd3146100b7575b600080fd5b61006461005f366004610581565b6100d7565b60405190151581526020015b60405180910390f35b60005461008c906001600160a01b031681565b6040516001600160a01b039091168152602001610070565b6100646100b2366004610581565b610161565b6100ca6100c5366004610664565b610210565b60405161007091906106f8565b60008054604051631e8e1e1360e01b81526001600160a01b0390911690631e8e1e139061010a908690869060040161075d565b60206040518083038186803b15801561012257600080fd5b505afa158015610136573d6000803e3d6000fd5b505050506040513d601f19601f8201168201806040525081019061015a9190610561565b9392505050565b600061016c82610227565b6101bd5760405162461bcd60e51b815260206004820152601960248201527f5468697320626f61726420646f6573206e6f742065786973740000000000000060448201526064015b60405180910390fd5b6101c783836100d7565b6102075760405162461bcd60e51b815260206004820152601160248201527046696c65642070726f6f6620636865636b60781b60448201526064016101b4565b50600192915050565b6102186104bc565b610221826103cb565b92915050565b60006001815b60038110156103c4576001915060005b6001826003811061025e57634e487b7160e01b600052603260045260246000fd5b505060098110156103a15760005b6001836003811061028d57634e487b7160e01b600052603260045260246000fd5b6009020182600981106102b057634e487b7160e01b600052603260045260246000fd5b5050600981101561039057600183600381106102dc57634e487b7160e01b600052603260045260246000fd5b6009020182600981106102ff57634e487b7160e01b600052603260045260246000fd5b01816009811061031f57634e487b7160e01b600052603260045260246000fd5b602081049091015460ff601f9092166101000a900416868261034285600961081f565b61034c9190610807565b8151811061036a57634e487b7160e01b600052603260045260246000fd5b6020026020010151146103805760009350610390565b6103898161086e565b905061026c565b5061039a8161086e565b905061023d565b50600182151514156103b4575092915050565b6103bd8161086e565b905061022d565b5092915050565b6103d36104bc565b60006003444233866040516020016103ee94939291906106b2565b6040516020818303038152906040528051906020012060001c6104119190610889565b90506001816003811061043457634e487b7160e01b600052603260045260246000fd5b60408051610120810190915291600991820201906000835b828210156104b057604080516101208101918290529085840190600990826000855b825461010083900a900460ff1681526020600192830181810494850194909303909202910180841161046e57905050505050508152602001906001019061044c565b50505050915050919050565b6040518061012001604052806009905b6104d46104ea565b8152602001906001900390816104cc5790505090565b6040518061012001604052806009906020820280368337509192915050565b600067ffffffffffffffff831115610523576105236108bf565b610536601f8401601f19166020016107d6565b905082815283838301111561054a57600080fd5b828260208301376000602084830101529392505050565b600060208284031215610572578081fd5b8151801515811461015a578182fd5b60008060408385031215610593578081fd5b823567ffffffffffffffff808211156105aa578283fd5b818501915085601f8301126105bd578283fd5b60206105cd878435838601610509565b9450808601359250818311156105e1578384fd5b828601925086601f8401126105f4578384fd5b823582811115610606576106066108bf565b8060051b92506106178284016107d6565b8181528281019085840185870185018b1015610631578788fd5b8796505b83871015610653578035835260019690960195918401918401610635565b508096505050505050509250929050565b600060208284031215610675578081fd5b813567ffffffffffffffff81111561068b578182fd5b8201601f8101841361069b578182fd5b6106aa84823560208401610509565b949350505050565b8481528360208201526bffffffffffffffffffffffff198360601b166040820152600082516106e881605485016020870161083e565b9190910160540195945050505050565b610a20810181836000805b60098082106107125750610753565b835185845b8381101561073857825160ff16825260209283019290910190600101610717565b50505061012094909401935060209290920191600101610703565b5050505092915050565b6040815260008351806040840152602061077d826060860183890161083e565b6060601f19601f939093019290921684018481038301858301528551928101839052858201928491608001905b808310156107ca57845182529383019360019290920191908301906107aa565b50979650505050505050565b604051601f8201601f1916810167ffffffffffffffff811182821017156107ff576107ff6108bf565b604052919050565b6000821982111561081a5761081a6108a9565b500190565b6000816000190483118215151615610839576108396108a9565b500290565b60005b83811015610859578181015183820152602001610841565b83811115610868576000848401525b50505050565b6000600019821415610882576108826108a9565b5060010190565b6000826108a457634e487b7160e01b81526012600452602481fd5b500690565b634e487b7160e01b600052601160045260246000fd5b634e487b7160e01b600052604160045260246000fdfea26469706673582212206bc84604abc8f750beb372f2c640df8658d59de992773c22b83b33e4d3fe7d7e64736f6c63430008040033",
  "linkReferences": {},
  "deployedLinkReferences": {}
}